{
  "_format": "hh-sol-artifact-1",
  "contractName": "Verify",
  "sourceName": "contracts/verify.sol",
  "abi": [
    {
      "inputs": [],
      "stateMutability": "nonpayable",
      "type": "constructor"
    },
    {
      "inputs": [
        {
          "internalType": "uint256",
          "name": "a",
          "type": "uint256"
        },
        {
          "internalType": "uint256",
          "name": "b",
          "type": "uint256"
        }
      ],
      "name": "addInteger",
      "outputs": [
        {
          "internalType": "uint256",
          "name": "",
          "type": "uint256"
        }
      ],
      "stateMutability": "view",
      "type": "function"
    },
    {
      "inputs": [],
      "name": "owner",
      "outputs": [
        {
          "internalType": "address",
          "name": "",
          "type": "address"
        }
      ],
      "stateMutability": "view",
      "type": "function"
    }
  ],
  "bytecode": "0x608060405234801561001057600080fd5b50336000806101000a81548173ffffffffffffffffffffffffffffffffffffffff021916908373ffffffffffffffffffffffffffffffffffffffff160217905550610369806100606000396000f3fe608060405234801561001057600080fd5b50600436106100365760003560e01c80638da5cb5b1461003b57806390e4a8e114610059575b600080fd5b610043610089565b6040516100509190610193565b60405180910390f35b610073600480360381019061006e91906101e9565b6100ad565b6040516100809190610238565b60405180910390f35b60008054906101000a900473ffffffffffffffffffffffffffffffffffffffff1681565b60008060009054906101000a900473ffffffffffffffffffffffffffffffffffffffff1673ffffffffffffffffffffffffffffffffffffffff163373ffffffffffffffffffffffffffffffffffffffff161461013e576040517f08c379a0000000000000000000000000000000000000000000000000000000008152600401610135906102b0565b60405180910390fd5b818361014a91906102ff565b905092915050565b600073ffffffffffffffffffffffffffffffffffffffff82169050919050565b600061017d82610152565b9050919050565b61018d81610172565b82525050565b60006020820190506101a86000830184610184565b92915050565b600080fd5b6000819050919050565b6101c6816101b3565b81146101d157600080fd5b50565b6000813590506101e3816101bd565b92915050565b60008060408385031215610200576101ff6101ae565b5b600061020e858286016101d4565b925050602061021f858286016101d4565b9150509250929050565b610232816101b3565b82525050565b600060208201905061024d6000830184610229565b92915050565b600082825260208201905092915050565b7f4f6e6c7920416c6c6f77656420666f72206f776e657200000000000000000000600082015250565b600061029a601683610253565b91506102a582610264565b602082019050919050565b600060208201905081810360008301526102c98161028d565b9050919050565b7f4e487b7100000000000000000000000000000000000000000000000000000000600052601160045260246000fd5b600061030a826101b3565b9150610315836101b3565b925082820190508082111561032d5761032c6102d0565b5b9291505056fea26469706673582212204c0d6d11f6aed0f38183ff856f06786f4480df646f915ca6cb43567c4cb16e1864736f6c63430008130033",
  "linkReferences": {},
  "deployedLinkReferences": {}
}